:100000000DC0D6C0D5C0D4C0D3C0D2C0D1C0D0C01E
:10001000CFC0CEC00060006B0001B20011241FBE33
:10002000CFE9CDBFE4E1F0E040E017C0B591A59184
:1000300035912591059107FD0CC095918591EF01B2
:10004000F92FE82F05900D92A217B307D9F7FE01FB
:1000500004C01D92A217B307E1F7EB31F40731F7A3
:0800600003D000C0F894FFCFAB
:10006800CF93DF93CDB7DD27C651CDBF82E087BBE5
:100078008DEF88BB8BE0E0E6F0E0DE011C96019096
:100088000D928A95E1F740E025C0E42FF0E0ACE05E
:10009800B0E0AC0FBD1FAE0FBF1F2C9130E0C901FF
:1000A800880F991F820F931F0024969587950794B0
:1000B800969587950794982F802D821B930B64E65D
:1000C80070E04AD081E090E08C0F9D1FE80FF91F87
:1000D80060834F5F4B30C8F283E28FBD89E083BFF6
:1000E8008FEB86BF60E070E080E856D0182FE1E023
:1000F800F0E0EC0FFD1FE10FF11D808189BDB39980
:10010800FECF8FE59AEE0197F1F700C00000B39B90
:10011800FECF8FE59AEE0197F1F700C000001F5F50
:100128001B3008F010E0612F80E090E028D0DFCF8E
:10013800AA1BBB1B51E107C0AA1FBB1FA617B70705
:1001480010F0A61BB70B881F991F5A95A9F7809521
:080158009095BC01CD01089552
:1001600097FB072E16F4009406D077FD08D0E4DF45
:1001700007FC05D03EF4909581959F4F08957095AA
:0601800061957F4F089518
:10018600262FE199FECF1CBA8EBB2DBB0FB6F89475
:0A019600E29AE19A0FBE0196089567
:1001A000CB01E199FECF8EBBE09A99278DB30895DC
:0201B00027CF57
:0B01B200000A19323C4650555A5F64A9
:00000001FF
