:100000000DC032C031C030C02FC02EC02DC02CC09A
:100010002BC02AC00060006B0001AA0011241FBE83
:10002000CFE9CDBFE4E1F0E040E017C0B591A59184
:1000300035912591059107FD0CC095918591EF01B2
:10004000F92FE82F05900D92A217B307D9F7FE01FB
:1000500004C01D92A217B307E1F7EB31F40731F7A3
:0800600004D000C0F894FFCFAA
:02006800CBCFFC
:10006A00CF93DF93CDB7DD27C651CDBF82E087BBE3
:10007A008DEF88BB8BE0E0E6F0E0DE011C96019094
:10008A000D928A95E1F7FE013C969E012F5F3F4F44
:10009A007E0187E1E80EF11C04E610E0419150E090
:1000AA00CA01880F991F840F951F0024969587957A
:1000BA000794969587950794982F802D841B950B06
:1000CA00B80132D0D9016D939D01EE16FF0631F7C2
:1000DA0083E28FBD89E083BF8FEB86BF60E070E06B
:1000EA0080E849D0182FE1E0F0E0EC0FFD1FE10FA6
:1000FA00F11D808189BDB399FECF8FE59AEE0197F4
:10010A00F1F700C00000B39BFECFAFE5BAEE11973E
:10011A00F1F700C000001F5F1B3008F010E0612FEC
:08012A0080E090E030D0DFCF4F
:1001320097FB072E16F4009406D077FD08D00BD05B
:1001420007FC05D03EF4909581959F4F08957095D8
:0601520061957F4F089546
:10015800AA1BBB1B51E107C0AA1FBB1FA617B707E5
:1001680010F0A61BB70B881F991F5A95A9F7809501
:080178009095BC01CD01089532
:10018000CB01E199FECF8EBBE09A99278DB30895FC
:10019000262FE199FECF1CBA8EBB2DBB0FB6F8946B
:0A01A000E29AE19A0FBE019608955D
:0B01AA00000A19323C4650555A5F64B1
:00000001FF
